{
  "contractName": "NFTMarket",
  "abi": [
    {
      "inputs": [],
      "stateMutability": "nonpayable",
      "type": "constructor"
    },
    {
      "anonymous": false,
      "inputs": [
        {
          "indexed": true,
          "internalType": "uint256",
          "name": "itemId",
          "type": "uint256"
        },
        {
          "indexed": true,
          "internalType": "address",
          "name": "nftContract",
          "type": "address"
        },
        {
          "indexed": true,
          "internalType": "uint256",
          "name": "tokenId",
          "type": "uint256"
        },
        {
          "indexed": false,
          "internalType": "address",
          "name": "seller",
          "type": "address"
        },
        {
          "indexed": false,
          "internalType": "address",
          "name": "owner",
          "type": "address"
        },
        {
          "indexed": false,
          "internalType": "uint256",
          "name": "price",
          "type": "uint256"
        },
        {
          "indexed": false,
          "internalType": "bool",
          "name": "sold",
          "type": "bool"
        }
      ],
      "name": "MarketItemCreated",
      "type": "event"
    },
    {
      "inputs": [],
      "name": "getListingPrice",
      "outputs": [
        {
          "internalType": "uint256",
          "name": "",
          "type": "uint256"
        }
      ],
      "stateMutability": "view",
      "type": "function",
      "constant": true
    },
    {
      "inputs": [
        {
          "internalType": "address",
          "name": "nftContract",
          "type": "address"
        },
        {
          "internalType": "uint256",
          "name": "tokenId",
          "type": "uint256"
        },
        {
          "internalType": "uint256",
          "name": "price",
          "type": "uint256"
        }
      ],
      "name": "createMarketItem",
      "outputs": [],
      "stateMutability": "payable",
      "type": "function",
      "payable": true
    },
    {
      "inputs": [
        {
          "internalType": "address",
          "name": "nftContract",
          "type": "address"
        },
        {
          "internalType": "uint256",
          "name": "itemId",
          "type": "uint256"
        }
      ],
      "name": "createMarketSale",
      "outputs": [],
      "stateMutability": "payable",
      "type": "function",
      "payable": true
    },
    {
      "inputs": [],
      "name": "fetchMarketItems",
      "outputs": [
        {
          "components": [
            {
              "internalType": "uint256",
              "name": "itemId",
              "type": "uint256"
            },
            {
              "internalType": "address",
              "name": "nftContract",
              "type": "address"
            },
            {
              "internalType": "uint256",
              "name": "tokenId",
              "type": "uint256"
            },
            {
              "internalType": "address payable",
              "name": "seller",
              "type": "address"
            },
            {
              "internalType": "address payable",
              "name": "owner",
              "type": "address"
            },
            {
              "internalType": "uint256",
              "name": "price",
              "type": "uint256"
            },
            {
              "internalType": "bool",
              "name": "sold",
              "type": "bool"
            }
          ],
          "internalType": "struct NFTMarket.MarketItem[]",
          "name": "",
          "type": "tuple[]"
        }
      ],
      "stateMutability": "view",
      "type": "function",
      "constant": true
    },
    {
      "inputs": [],
      "name": "fetchMyNFTs",
      "outputs": [
        {
          "components": [
            {
              "internalType": "uint256",
              "name": "itemId",
              "type": "uint256"
            },
            {
              "internalType": "address",
              "name": "nftContract",
              "type": "address"
            },
            {
              "internalType": "uint256",
              "name": "tokenId",
              "type": "uint256"
            },
            {
              "internalType": "address payable",
              "name": "seller",
              "type": "address"
            },
            {
              "internalType": "address payable",
              "name": "owner",
              "type": "address"
            },
            {
              "internalType": "uint256",
              "name": "price",
              "type": "uint256"
            },
            {
              "internalType": "bool",
              "name": "sold",
              "type": "bool"
            }
          ],
          "internalType": "struct NFTMarket.MarketItem[]",
          "name": "",
          "type": "tuple[]"
        }
      ],
      "stateMutability": "view",
      "type": "function",
      "constant": true
    },
    {
      "inputs": [],
      "name": "fetchItemsCreated",
      "outputs": [
        {
          "components": [
            {
              "internalType": "uint256",
              "name": "itemId",
              "type": "uint256"
            },
            {
              "internalType": "address",
              "name": "nftContract",
              "type": "address"
            },
            {
              "internalType": "uint256",
              "name": "tokenId",
              "type": "uint256"
            },
            {
              "internalType": "address payable",
              "name": "seller",
              "type": "address"
            },
            {
              "internalType": "address payable",
              "name": "owner",
              "type": "address"
            },
            {
              "internalType": "uint256",
              "name": "price",
              "type": "uint256"
            },
            {
              "internalType": "bool",
              "name": "sold",
              "type": "bool"
            }
          ],
          "internalType": "struct NFTMarket.MarketItem[]",
          "name": "",
          "type": "tuple[]"
        }
      ],
      "stateMutability": "view",
      "type": "function",
      "constant": true
    }
  ],
  "bytecode": "0x60806040526658d15e1762800060045534801561001b57600080fd5b50600160008190555033600360006101000a81548173ffffffffffffffffffffffffffffffffffffffff021916908373ffffffffffffffffffffffffffffffffffffffff160217905550611905806100746000396000f3fe6080604052600436106100555760003560e01c80630f08efe01461005a57806312e8558514610085578063202e3740146100b057806358eb2df5146100db578063c23b139e146100f7578063f064c32e14610113575b600080fd5b34801561006657600080fd5b5061006f61013e565b60405161007c919061163e565b60405180910390f35b34801561009157600080fd5b5061009a610454565b6040516100a791906116e0565b60405180910390f35b3480156100bc57600080fd5b506100c561045e565b6040516100d2919061163e565b60405180910390f35b6100f560048036038101906100f091906112ba565b6107f8565b005b610111600480360381019061010c919061127e565b610b5c565b005b34801561011f57600080fd5b50610128610e15565b604051610135919061163e565b60405180910390f35b6060600061014c60016111af565b9050600061015a60026111af565b61016460016111af565b61016e919061179b565b90506000808267ffffffffffffffff8111156101b3577f4e487b7100000000000000000000000000000000000000000000000000000000600052604160045260246000fd5b6040519080825280602002602001820160405280156101ec57816020015b6101d96111d3565b8152602001906001900390816101d15790505b50905060005b8481101561044957600073ffffffffffffffffffffffffffffffffffffffff16600560006001846102239190611745565b815260200190815260200160002060040160009054906101000a900473ffffffffffffffffffffffffffffffffffffffff1673ffffffffffffffffffffffffffffffffffffffff1614156104365760006001826102809190611745565b90506000600560008381526020019081526020016000209050806040518060e0016040529081600082015481526020016001820160009054906101000a900473ffffffffffffffffffffffffffffffffffffffff1673ffffffffffffffffffffffffffffffffffffffff1673ffffffffffffffffffffffffffffffffffffffff168152602001600282015481526020016003820160009054906101000a900473ffffffffffffffffffffffffffffffffffffffff1673ffffffffffffffffffffffffffffffffffffffff1673ffffffffffffffffffffffffffffffffffffffff1681526020016004820160009054906101000a900473ffffffffffffffffffffffffffffffffffffffff1673ffffffffffffffffffffffffffffffffffffffff1673ffffffffffffffffffffffffffffffffffffffff168152602001600582015481526020016006820160009054906101000a900460ff161515151581525050848681518110610419577f4e487b7100000000000000000000000000000000000000000000000000000000600052603260045260246000fd5b60200260200101819052506001856104319190611745565b945050505b808061044190611829565b9150506101f2565b508094505050505090565b6000600454905090565b6060600061046c60016111af565b905060008060005b83811015610515573373ffffffffffffffffffffffffffffffffffffffff16600560006001846104a49190611745565b815260200190815260200160002060040160009054906101000a900473ffffffffffffffffffffffffffffffffffffffff1673ffffffffffffffffffffffffffffffffffffffff161415610502576001836104ff9190611745565b92505b808061050d90611829565b915050610474565b5060008267ffffffffffffffff811115610558577f4e487b7100000000000000000000000000000000000000000000000000000000600052604160045260246000fd5b60405190808252806020026020018201604052801561059157816020015b61057e6111d3565b8152602001906001900390816105765790505b50905060005b848110156107ed573373ffffffffffffffffffffffffffffffffffffffff16600560006001846105c79190611745565b815260200190815260200160002060040160009054906101000a900473ffffffffffffffffffffffffffffffffffffffff1673ffffffffffffffffffffffffffffffffffffffff1614156107da5760006001826106249190611745565b90506000600560008381526020019081526020016000209050806040518060e0016040529081600082015481526020016001820160009054906101000a900473ffffffffffffffffffffffffffffffffffffffff1673ffffffffffffffffffffffffffffffffffffffff1673ffffffffffffffffffffffffffffffffffffffff168152602001600282015481526020016003820160009054906101000a900473ffffffffffffffffffffffffffffffffffffffff1673ffffffffffffffffffffffffffffffffffffffff1673ffffffffffffffffffffffffffffffffffffffff1681526020016004820160009054906101000a900473ffffffffffffffffffffffffffffffffffffffff1673ffffffffffffffffffffffffffffffffffffffff1673ffffffffffffffffffffffffffffffffffffffff168152602001600582015481526020016006820160009054906101000a900460ff1615151515815250508486815181106107bd577f4e487b7100000000000000000000000000000000000000000000000000000000600052603260045260246000fd5b60200260200101819052506001856107d59190611745565b945050505b80806107e590611829565b915050610597565b508094505050505090565b6002600054141561083e576040517f08c379a0000000000000000000000000000000000000000000000000000000008152600401610835906116a0565b60405180910390fd5b600260008190555060008111610889576040517f08c379a0000000000000000000000000000000000000000000000000000000008152600401610880906116c0565b60405180910390fd5b60045434146108cd576040517f08c379a00000000000000000000000000000000000000000000000000000000081526004016108c490611680565b60405180910390fd5b6108d760016111bd565b60006108e360016111af565b90506040518060e001604052808281526020018573ffffffffffffffffffffffffffffffffffffffff1681526020018481526020013373ffffffffffffffffffffffffffffffffffffffff168152602001600073ffffffffffffffffffffffffffffffffffffffff16815260200183815260200160001515815250600560008381526020019081526020016000206000820151816000015560208201518160010160006101000a81548173ffffffffffffffffffffffffffffffffffffffff021916908373ffffffffffffffffffffffffffffffffffffffff1602179055506040820151816002015560608201518160030160006101000a81548173ffffffffffffffffffffffffffffffffffffffff021916908373ffffffffffffffffffffffffffffffffffffffff16021790555060808201518160040160006101000a81548173ffffffffffffffffffffffffffffffffffffffff021916908373ffffffffffffffffffffffffffffffffffffffff16021790555060a0820151816005015560c08201518160060160006101000a81548160ff0219169083151502179055509050508373ffffffffffffffffffffffffffffffffffffffff166323b872dd3330866040518463ffffffff1660e01b8152600401610ac4939291906115c2565b600060405180830381600087803b158015610ade57600080fd5b505af1158015610af2573d6000803e3d6000fd5b50505050828473ffffffffffffffffffffffffffffffffffffffff16827f045dfa01dcba2b36aba1d3dc4a874f4b0c5d2fbeb8d2c4b34a7d88c8d8f929d1336000876000604051610b4694939291906115f9565b60405180910390a4506001600081905550505050565b60026000541415610ba2576040517f08c379a0000000000000000000000000000000000000000000000000000000008152600401610b99906116a0565b60405180910390fd5b6002600081905550600060056000838152602001908152602001600020600501549050600060056000848152602001908152602001600020600201549050813414610c22576040517f08c379a0000000000000000000000000000000000000000000000000000000008152600401610c1990611660565b60405180910390fd5b6005600084815260200190815260200160002060030160009054906101000a900473ffffffffffffffffffffffffffffffffffffffff1673ffffffffffffffffffffffffffffffffffffffff166108fc349081150290604051600060405180830381858888f19350505050158015610c9e573d6000803e3d6000fd5b508373ffffffffffffffffffffffffffffffffffffffff166323b872dd3033846040518463ffffffff1660e01b8152600401610cdc939291906115c2565b600060405180830381600087803b158015610cf657600080fd5b505af1158015610d0a573d6000803e3d6000fd5b50505050336005600085815260200190815260200160002060040160006101000a81548173ffffffffffffffffffffffffffffffffffffffff021916908373ffffffffffffffffffffffffffffffffffffffff16021790555060016005600085815260200190815260200160002060060160006101000a81548160ff021916908315150217905550610d9c60026111bd565b600360009054906101000a900473ffffffffffffffffffffffffffffffffffffffff1673ffffffffffffffffffffffffffffffffffffffff166108fc6004549081150290604051600060405180830381858888f19350505050158015610e06573d6000803e3d6000fd5b50505060016000819055505050565b60606000610e2360016111af565b905060008060005b83811015610ecc573373ffffffffffffffffffffffffffffffffffffffff1660056000600184610e5b9190611745565b815260200190815260200160002060030160009054906101000a900473ffffffffffffffffffffffffffffffffffffffff1673ffffffffffffffffffffffffffffffffffffffff161415610eb957600183610eb69190611745565b92505b8080610ec490611829565b915050610e2b565b5060008267ffffffffffffffff811115610f0f577f4e487b7100000000000000000000000000000000000000000000000000000000600052604160045260246000fd5b604051908082528060200260200182016040528015610f4857816020015b610f356111d3565b815260200190600190039081610f2d5790505b50905060005b848110156111a4573373ffffffffffffffffffffffffffffffffffffffff1660056000600184610f7e9190611745565b815260200190815260200160002060030160009054906101000a900473ffffffffffffffffffffffffffffffffffffffff1673ffffffffffffffffffffffffffffffffffffffff161415611191576000600182610fdb9190611745565b90506000600560008381526020019081526020016000209050806040518060e0016040529081600082015481526020016001820160009054906101000a900473ffffffffffffffffffffffffffffffffffffffff1673ffffffffffffffffffffffffffffffffffffffff1673ffffffffffffffffffffffffffffffffffffffff168152602001600282015481526020016003820160009054906101000a900473ffffffffffffffffffffffffffffffffffffffff1673ffffffffffffffffffffffffffffffffffffffff1673ffffffffffffffffffffffffffffffffffffffff1681526020016004820160009054906101000a900473ffffffffffffffffffffffffffffffffffffffff1673ffffffffffffffffffffffffffffffffffffffff1673ffffffffffffffffffffffffffffffffffffffff168152602001600582015481526020016006820160009054906101000a900460ff161515151581525050848681518110611174577f4e487b7100000000000000000000000000000000000000000000000000000000600052603260045260246000fd5b602002602001018190525060018561118c9190611745565b945050505b808061119c90611829565b915050610f4e565b508094505050505090565b600081600001549050919050565b6001816000016000828254019250508190555050565b6040518060e0016040528060008152602001600073ffffffffffffffffffffffffffffffffffffffff16815260200160008152602001600073ffffffffffffffffffffffffffffffffffffffff168152602001600073ffffffffffffffffffffffffffffffffffffffff168152602001600081526020016000151581525090565b600081359050611263816118a1565b92915050565b600081359050611278816118b8565b92915050565b6000806040838503121561129157600080fd5b600061129f85828601611254565b92505060206112b085828601611269565b9150509250929050565b6000806000606084860312156112cf57600080fd5b60006112dd86828701611254565b93505060206112ee86828701611269565b92505060406112ff86828701611269565b9150509250925092565b60006113158383611516565b60e08301905092915050565b61132a816117e1565b82525050565b611339816117cf565b82525050565b611348816117cf565b82525050565b60006113598261170b565b6113638185611723565b935061136e836116fb565b8060005b8381101561139f5781516113868882611309565b975061139183611716565b925050600181019050611372565b5085935050505092915050565b6113b5816117f3565b82525050565b6113c4816117f3565b82525050565b60006113d7604083611734565b91507f506c65617365207375626d6974207468652061736b696e67207072696365206960008301527f6e206f7264657220746f20636f6d706c657465207468652070757263686173656020830152604082019050919050565b600061143d602483611734565b91507f5072696365206d75737420626520657175616c20746f206c697374696e67207060008301527f72696365000000000000000000000000000000000000000000000000000000006020830152604082019050919050565b60006114a3601f83611734565b91507f5265656e7472616e637947756172643a207265656e7472616e742063616c6c006000830152602082019050919050565b60006114e3601c83611734565b91507f5072696365206d757374206265206174206c65617374203120776569000000006000830152602082019050919050565b60e08201600082015161152c60008501826115a4565b50602082015161153f6020850182611330565b50604082015161155260408501826115a4565b5060608201516115656060850182611321565b5060808201516115786080850182611321565b5060a082015161158b60a08501826115a4565b5060c082015161159e60c08501826113ac565b50505050565b6115ad8161181f565b82525050565b6115bc8161181f565b82525050565b60006060820190506115d7600083018661133f565b6115e4602083018561133f565b6115f160408301846115b3565b949350505050565b600060808201905061160e600083018761133f565b61161b602083018661133f565b61162860408301856115b3565b61163560608301846113bb565b95945050505050565b60006020820190508181036000830152611658818461134e565b905092915050565b60006020820190508181036000830152611679816113ca565b9050919050565b6000602082019050818103600083015261169981611430565b9050919050565b600060208201905081810360008301526116b981611496565b9050919050565b600060208201905081810360008301526116d9816114d6565b9050919050565b60006020820190506116f560008301846115b3565b92915050565b6000819050602082019050919050565b600081519050919050565b6000602082019050919050565b600082825260208201905092915050565b600082825260208201905092915050565b60006117508261181f565b915061175b8361181f565b9250827fffffffffffffffffffffffffffffffffffffffffffffffffffffffffffffffff038211156117905761178f611872565b5b828201905092915050565b60006117a68261181f565b91506117b18361181f565b9250828210156117c4576117c3611872565b5b828203905092915050565b60006117da826117ff565b9050919050565b60006117ec826117ff565b9050919050565b60008115159050919050565b600073ffffffffffffffffffffffffffffffffffffffff82169050919050565b6000819050919050565b60006118348261181f565b91507fffffffffffffffffffffffffffffffffffffffffffffffffffffffffffffffff82141561186757611866611872565b5b600182019050919050565b7f4e487b7100000000000000000000000000000000000000000000000000000000600052601160045260246000fd5b6118aa816117cf565b81146118b557600080fd5b50565b6118c18161181f565b81146118cc57600080fd5b5056fea26469706673582212201ba577d3829b8b6301a60c9cef6ac223f66dd351880b4a93e2bf885b6433620d64736f6c63430008000033",
  "immutableReferences": {},
  "source": "// SPDX-License-Identifier: MIT OR Apache-2.0\r\npragma solidity 0.8.0;\r\n\r\nimport \"@openzeppelin/contracts/utils/Counters.sol\";\r\nimport \"@openzeppelin/contracts/security/ReentrancyGuard.sol\";\r\nimport \"@openzeppelin/contracts/token/ERC721/ERC721.sol\";\r\n\r\n\r\n\r\ncontract NFTMarket is ReentrancyGuard {\r\n  using Counters for Counters.Counter;\r\n  Counters.Counter private _itemIds;\r\n  Counters.Counter private _itemsSold;\r\n\r\n  address payable owner;\r\n  uint256 listingPrice = 0.025 ether;\r\n\r\n  constructor() {\r\n    owner = payable(msg.sender);\r\n  }\r\n\r\n  struct MarketItem {\r\n    uint itemId;\r\n    address nftContract;\r\n    uint256 tokenId;\r\n    address payable seller;\r\n    address payable owner;\r\n    uint256 price;\r\n    bool sold;\r\n  }\r\n\r\n  mapping(uint256 => MarketItem) private idToMarketItem;\r\n\r\n  event MarketItemCreated (\r\n    uint indexed itemId,\r\n    address indexed nftContract,\r\n    uint256 indexed tokenId,\r\n    address seller,\r\n    address owner,\r\n    uint256 price,\r\n    bool sold\r\n  );\r\n\r\n  /* Returns the listing price of the contract */\r\n  function getListingPrice() public view returns (uint256) {\r\n    return listingPrice;\r\n  }\r\n  \r\n  /* Places an item for sale on the marketplace */\r\n  function createMarketItem(\r\n    address nftContract,\r\n    uint256 tokenId,\r\n    uint256 price\r\n  ) public payable nonReentrant {\r\n    require(price > 0, \"Price must be at least 1 wei\");\r\n    require(msg.value == listingPrice, \"Price must be equal to listing price\");\r\n\r\n    _itemIds.increment();\r\n    uint256 itemId = _itemIds.current();\r\n  \r\n    idToMarketItem[itemId] =  MarketItem(\r\n      itemId,\r\n      nftContract,\r\n      tokenId,\r\n      payable(msg.sender),\r\n      payable(address(0)),\r\n      price,\r\n      false\r\n    );\r\n\r\n    IERC721(nftContract).transferFrom(msg.sender, address(this), tokenId);\r\n\r\n    emit MarketItemCreated(\r\n      itemId,\r\n      nftContract,\r\n      tokenId,\r\n      msg.sender,\r\n      address(0),\r\n      price,\r\n      false\r\n    );\r\n  }\r\n\r\n  /* Creates the sale of a marketplace item */\r\n  /* Transfers ownership of the item, as well as funds between parties */\r\n  function createMarketSale(\r\n    address nftContract,\r\n    uint256 itemId\r\n    ) public payable nonReentrant {\r\n    uint price = idToMarketItem[itemId].price;\r\n    uint tokenId = idToMarketItem[itemId].tokenId;\r\n    require(msg.value == price, \"Please submit the asking price in order to complete the purchase\");\r\n\r\n    idToMarketItem[itemId].seller.transfer(msg.value);\r\n    IERC721(nftContract).transferFrom(address(this), msg.sender, tokenId);\r\n    idToMarketItem[itemId].owner = payable(msg.sender);\r\n    idToMarketItem[itemId].sold = true;\r\n    _itemsSold.increment();\r\n    payable(owner).transfer(listingPrice);\r\n  }\r\n\r\n  /* Returns all unsold market items */\r\n  function fetchMarketItems() public view returns (MarketItem[] memory) {\r\n    uint itemCount = _itemIds.current();\r\n    uint unsoldItemCount = _itemIds.current() - _itemsSold.current();\r\n    uint currentIndex = 0;\r\n\r\n    MarketItem[] memory items = new MarketItem[](unsoldItemCount);\r\n    for (uint i = 0; i < itemCount; i++) {\r\n      if (idToMarketItem[i + 1].owner == address(0)) {\r\n        uint currentId = i + 1;\r\n        MarketItem storage currentItem = idToMarketItem[currentId];\r\n        items[currentIndex] = currentItem;\r\n        currentIndex += 1;\r\n      }\r\n    }\r\n    return items;\r\n  }\r\n\r\n  /* Returns onlyl items that a user has purchased */\r\n  function fetchMyNFTs() public view returns (MarketItem[] memory) {\r\n    uint totalItemCount = _itemIds.current();\r\n    uint itemCount = 0;\r\n    uint currentIndex = 0;\r\n\r\n    for (uint i = 0; i < totalItemCount; i++) {\r\n      if (idToMarketItem[i + 1].owner == msg.sender) {\r\n        itemCount += 1;\r\n      }\r\n    }\r\n\r\n    MarketItem[] memory items = new MarketItem[](itemCount);\r\n    for (uint i = 0; i < totalItemCount; i++) {\r\n      if (idToMarketItem[i + 1].owner == msg.sender) {\r\n        uint currentId = i + 1;\r\n        MarketItem storage currentItem = idToMarketItem[currentId];\r\n        items[currentIndex] = currentItem;\r\n        currentIndex += 1;\r\n      }\r\n    }\r\n    return items;\r\n  }\r\n\r\n  /* Returns only items a user has created */\r\n  function fetchItemsCreated() public view returns (MarketItem[] memory) {\r\n    uint totalItemCount = _itemIds.current();\r\n    uint itemCount = 0;\r\n    uint currentIndex = 0;\r\n\r\n    for (uint i = 0; i < totalItemCount; i++) {\r\n      if (idToMarketItem[i + 1].seller == msg.sender) {\r\n        itemCount += 1;\r\n      }\r\n    }\r\n\r\n    MarketItem[] memory items = new MarketItem[](itemCount);\r\n    for (uint i = 0; i < totalItemCount; i++) {\r\n      if (idToMarketItem[i + 1].seller == msg.sender) {\r\n        uint currentId = i + 1;\r\n        MarketItem storage currentItem = idToMarketItem[currentId];\r\n        items[currentIndex] = currentItem;\r\n        currentIndex += 1;\r\n      }\r\n    }\r\n    return items;\r\n  }\r\n}",
  "sourcePath": "E:\\Blockchain\\mynftmarket\\contracts\\Market.sol",
  "compiler": {
    "name": "solc",
    "version": "0.8.0+commit.c7dfd78e.Emscripten.clang"
  },
  "schemaVersion": "3.4.4",
  "updatedAt": "2022-04-04T17:09:55.312Z",
  "networkType": "ethereum",
  "devdoc": {
    "kind": "dev",
    "methods": {},
    "version": 1
  },
  "userdoc": {
    "kind": "user",
    "methods": {},
    "version": 1
  }
}